{
  "contractName": "ExerciceSolution",
  "abi": [
    {
      "inputs": [],
      "stateMutability": "nonpayable",
      "type": "constructor"
    },
    {
      "anonymous": false,
      "inputs": [
        {
          "indexed": true,
          "internalType": "address",
          "name": "owner",
          "type": "address"
        },
        {
          "indexed": true,
          "internalType": "address",
          "name": "approved",
          "type": "address"
        },
        {
          "indexed": true,
          "internalType": "uint256",
          "name": "tokenId",
          "type": "uint256"
        }
      ],
      "name": "Approval",
      "type": "event"
    },
    {
      "anonymous": false,
      "inputs": [
        {
          "indexed": true,
          "internalType": "address",
          "name": "owner",
          "type": "address"
        },
        {
          "indexed": true,
          "internalType": "address",
          "name": "operator",
          "type": "address"
        },
        {
          "indexed": false,
          "internalType": "bool",
          "name": "approved",
          "type": "bool"
        }
      ],
      "name": "ApprovalForAll",
      "type": "event"
    },
    {
      "anonymous": false,
      "inputs": [
        {
          "indexed": true,
          "internalType": "address",
          "name": "from",
          "type": "address"
        },
        {
          "indexed": true,
          "internalType": "address",
          "name": "to",
          "type": "address"
        },
        {
          "indexed": true,
          "internalType": "uint256",
          "name": "tokenId",
          "type": "uint256"
        }
      ],
      "name": "Transfer",
      "type": "event"
    },
    {
      "inputs": [
        {
          "internalType": "uint256",
          "name": "",
          "type": "uint256"
        }
      ],
      "name": "BreederCustomers",
      "outputs": [
        {
          "internalType": "address",
          "name": "",
          "type": "address"
        }
      ],
      "stateMutability": "view",
      "type": "function",
      "constant": true
    },
    {
      "inputs": [
        {
          "internalType": "uint256",
          "name": "",
          "type": "uint256"
        }
      ],
      "name": "animals",
      "outputs": [
        {
          "internalType": "uint256",
          "name": "sex",
          "type": "uint256"
        },
        {
          "internalType": "uint256",
          "name": "legs",
          "type": "uint256"
        },
        {
          "internalType": "bool",
          "name": "wings",
          "type": "bool"
        },
        {
          "internalType": "string",
          "name": "name",
          "type": "string"
        }
      ],
      "stateMutability": "view",
      "type": "function",
      "constant": true
    },
    {
      "inputs": [
        {
          "internalType": "address",
          "name": "to",
          "type": "address"
        },
        {
          "internalType": "uint256",
          "name": "tokenId",
          "type": "uint256"
        }
      ],
      "name": "approve",
      "outputs": [],
      "stateMutability": "nonpayable",
      "type": "function"
    },
    {
      "inputs": [
        {
          "internalType": "uint256",
          "name": "",
          "type": "uint256"
        }
      ],
      "name": "autorizereproduce",
      "outputs": [
        {
          "internalType": "address",
          "name": "",
          "type": "address"
        }
      ],
      "stateMutability": "view",
      "type": "function",
      "constant": true
    },
    {
      "inputs": [
        {
          "internalType": "address",
          "name": "owner",
          "type": "address"
        }
      ],
      "name": "balanceOf",
      "outputs": [
        {
          "internalType": "uint256",
          "name": "",
          "type": "uint256"
        }
      ],
      "stateMutability": "view",
      "type": "function",
      "constant": true
    },
    {
      "inputs": [],
      "name": "baseURI",
      "outputs": [
        {
          "internalType": "string",
          "name": "",
          "type": "string"
        }
      ],
      "stateMutability": "view",
      "type": "function",
      "constant": true
    },
    {
      "inputs": [
        {
          "internalType": "uint256",
          "name": "tokenId",
          "type": "uint256"
        }
      ],
      "name": "getApproved",
      "outputs": [
        {
          "internalType": "address",
          "name": "",
          "type": "address"
        }
      ],
      "stateMutability": "view",
      "type": "function",
      "constant": true
    },
    {
      "inputs": [
        {
          "internalType": "address",
          "name": "owner",
          "type": "address"
        },
        {
          "internalType": "address",
          "name": "operator",
          "type": "address"
        }
      ],
      "name": "isApprovedForAll",
      "outputs": [
        {
          "internalType": "bool",
          "name": "",
          "type": "bool"
        }
      ],
      "stateMutability": "view",
      "type": "function",
      "constant": true
    },
    {
      "inputs": [
        {
          "internalType": "uint256",
          "name": "",
          "type": "uint256"
        }
      ],
      "name": "isDispoToSell",
      "outputs": [
        {
          "internalType": "bool",
          "name": "",
          "type": "bool"
        }
      ],
      "stateMutability": "view",
      "type": "function",
      "constant": true
    },
    {
      "inputs": [
        {
          "internalType": "uint256",
          "name": "",
          "type": "uint256"
        }
      ],
      "name": "isPrice",
      "outputs": [
        {
          "internalType": "uint256",
          "name": "",
          "type": "uint256"
        }
      ],
      "stateMutability": "view",
      "type": "function",
      "constant": true
    },
    {
      "inputs": [],
      "name": "name",
      "outputs": [
        {
          "internalType": "string",
          "name": "",
          "type": "string"
        }
      ],
      "stateMutability": "view",
      "type": "function",
      "constant": true
    },
    {
      "inputs": [
        {
          "internalType": "uint256",
          "name": "tokenId",
          "type": "uint256"
        }
      ],
      "name": "ownerOf",
      "outputs": [
        {
          "internalType": "address",
          "name": "",
          "type": "address"
        }
      ],
      "stateMutability": "view",
      "type": "function",
      "constant": true
    },
    {
      "inputs": [
        {
          "internalType": "address",
          "name": "",
          "type": "address"
        },
        {
          "internalType": "uint256",
          "name": "",
          "type": "uint256"
        }
      ],
      "name": "ownerindex",
      "outputs": [
        {
          "internalType": "uint256",
          "name": "",
          "type": "uint256"
        }
      ],
      "stateMutability": "view",
      "type": "function",
      "constant": true
    },
    {
      "inputs": [
        {
          "internalType": "uint256",
          "name": "",
          "type": "uint256"
        }
      ],
      "name": "parents",
      "outputs": [
        {
          "internalType": "uint256",
          "name": "parent1",
          "type": "uint256"
        },
        {
          "internalType": "uint256",
          "name": "parent2",
          "type": "uint256"
        }
      ],
      "stateMutability": "view",
      "type": "function",
      "constant": true
    },
    {
      "inputs": [
        {
          "internalType": "uint256",
          "name": "",
          "type": "uint256"
        }
      ],
      "name": "reproduction",
      "outputs": [
        {
          "internalType": "bool",
          "name": "CanReproduce",
          "type": "bool"
        },
        {
          "internalType": "uint256",
          "name": "price",
          "type": "uint256"
        }
      ],
      "stateMutability": "view",
      "type": "function",
      "constant": true
    },
    {
      "inputs": [
        {
          "internalType": "address",
          "name": "from",
          "type": "address"
        },
        {
          "internalType": "address",
          "name": "to",
          "type": "address"
        },
        {
          "internalType": "uint256",
          "name": "tokenId",
          "type": "uint256"
        }
      ],
      "name": "safeTransferFrom",
      "outputs": [],
      "stateMutability": "nonpayable",
      "type": "function"
    },
    {
      "inputs": [
        {
          "internalType": "address",
          "name": "from",
          "type": "address"
        },
        {
          "internalType": "address",
          "name": "to",
          "type": "address"
        },
        {
          "internalType": "uint256",
          "name": "tokenId",
          "type": "uint256"
        },
        {
          "internalType": "bytes",
          "name": "_data",
          "type": "bytes"
        }
      ],
      "name": "safeTransferFrom",
      "outputs": [],
      "stateMutability": "nonpayable",
      "type": "function"
    },
    {
      "inputs": [
        {
          "internalType": "address",
          "name": "operator",
          "type": "address"
        },
        {
          "internalType": "bool",
          "name": "approved",
          "type": "bool"
        }
      ],
      "name": "setApprovalForAll",
      "outputs": [],
      "stateMutability": "nonpayable",
      "type": "function"
    },
    {
      "inputs": [
        {
          "internalType": "bytes4",
          "name": "interfaceId",
          "type": "bytes4"
        }
      ],
      "name": "supportsInterface",
      "outputs": [
        {
          "internalType": "bool",
          "name": "",
          "type": "bool"
        }
      ],
      "stateMutability": "view",
      "type": "function",
      "constant": true
    },
    {
      "inputs": [],
      "name": "symbol",
      "outputs": [
        {
          "internalType": "string",
          "name": "",
          "type": "string"
        }
      ],
      "stateMutability": "view",
      "type": "function",
      "constant": true
    },
    {
      "inputs": [
        {
          "internalType": "uint256",
          "name": "index",
          "type": "uint256"
        }
      ],
      "name": "tokenByIndex",
      "outputs": [
        {
          "internalType": "uint256",
          "name": "",
          "type": "uint256"
        }
      ],
      "stateMutability": "view",
      "type": "function",
      "constant": true
    },
    {
      "inputs": [
        {
          "internalType": "uint256",
          "name": "tokenId",
          "type": "uint256"
        }
      ],
      "name": "tokenURI",
      "outputs": [
        {
          "internalType": "string",
          "name": "",
          "type": "string"
        }
      ],
      "stateMutability": "view",
      "type": "function",
      "constant": true
    },
    {
      "inputs": [],
      "name": "totalSupply",
      "outputs": [
        {
          "internalType": "uint256",
          "name": "",
          "type": "uint256"
        }
      ],
      "stateMutability": "view",
      "type": "function",
      "constant": true
    },
    {
      "inputs": [
        {
          "internalType": "address",
          "name": "from",
          "type": "address"
        },
        {
          "internalType": "address",
          "name": "to",
          "type": "address"
        },
        {
          "internalType": "uint256",
          "name": "tokenId",
          "type": "uint256"
        }
      ],
      "name": "transferFrom",
      "outputs": [],
      "stateMutability": "nonpayable",
      "type": "function"
    },
    {
      "inputs": [
        {
          "internalType": "uint256",
          "name": "animalNumber",
          "type": "uint256"
        },
        {
          "internalType": "uint256",
          "name": "sex",
          "type": "uint256"
        },
        {
          "internalType": "uint256",
          "name": "legs",
          "type": "uint256"
        },
        {
          "internalType": "bool",
          "name": "wings",
          "type": "bool"
        },
        {
          "internalType": "string",
          "name": "name",
          "type": "string"
        }
      ],
      "name": "AssociateAnimalToHolder",
      "outputs": [],
      "stateMutability": "nonpayable",
      "type": "function"
    },
    {
      "inputs": [
        {
          "internalType": "address",
          "name": "to",
          "type": "address"
        }
      ],
      "name": "safeMint",
      "outputs": [],
      "stateMutability": "nonpayable",
      "type": "function"
    },
    {
      "inputs": [
        {
          "internalType": "address",
          "name": "account",
          "type": "address"
        }
      ],
      "name": "isBreeder",
      "outputs": [
        {
          "internalType": "bool",
          "name": "",
          "type": "bool"
        }
      ],
      "stateMutability": "nonpayable",
      "type": "function"
    },
    {
      "inputs": [],
      "name": "registrationPrice",
      "outputs": [
        {
          "internalType": "uint256",
          "name": "",
          "type": "uint256"
        }
      ],
      "stateMutability": "nonpayable",
      "type": "function"
    },
    {
      "inputs": [],
      "name": "registerMeAsBreeder",
      "outputs": [],
      "stateMutability": "payable",
      "type": "function",
      "payable": true
    },
    {
      "inputs": [
        {
          "internalType": "uint256",
          "name": "sex",
          "type": "uint256"
        },
        {
          "internalType": "uint256",
          "name": "legs",
          "type": "uint256"
        },
        {
          "internalType": "bool",
          "name": "wings",
          "type": "bool"
        },
        {
          "internalType": "string",
          "name": "name",
          "type": "string"
        }
      ],
      "name": "declareAnimal",
      "outputs": [
        {
          "internalType": "uint256",
          "name": "",
          "type": "uint256"
        }
      ],
      "stateMutability": "nonpayable",
      "type": "function"
    },
    {
      "inputs": [
        {
          "internalType": "uint256",
          "name": "animalNumber",
          "type": "uint256"
        }
      ],
      "name": "getAnimalCharacteristics",
      "outputs": [
        {
          "internalType": "string",
          "name": "_name",
          "type": "string"
        },
        {
          "internalType": "bool",
          "name": "_wings",
          "type": "bool"
        },
        {
          "internalType": "uint256",
          "name": "_legs",
          "type": "uint256"
        },
        {
          "internalType": "uint256",
          "name": "_sex",
          "type": "uint256"
        }
      ],
      "stateMutability": "nonpayable",
      "type": "function"
    },
    {
      "inputs": [
        {
          "internalType": "uint256",
          "name": "animalNumber",
          "type": "uint256"
        }
      ],
      "name": "declareDeadAnimal",
      "outputs": [],
      "stateMutability": "nonpayable",
      "type": "function"
    },
    {
      "inputs": [
        {
          "internalType": "address",
          "name": "owner",
          "type": "address"
        },
        {
          "internalType": "uint256",
          "name": "index",
          "type": "uint256"
        }
      ],
      "name": "tokenOfOwnerByIndex",
      "outputs": [
        {
          "internalType": "uint256",
          "name": "",
          "type": "uint256"
        }
      ],
      "stateMutability": "view",
      "type": "function",
      "constant": true
    },
    {
      "inputs": [
        {
          "internalType": "uint256",
          "name": "animalNumber",
          "type": "uint256"
        }
      ],
      "name": "isAnimalForSale",
      "outputs": [
        {
          "internalType": "bool",
          "name": "",
          "type": "bool"
        }
      ],
      "stateMutability": "view",
      "type": "function",
      "constant": true
    },
    {
      "inputs": [
        {
          "internalType": "uint256",
          "name": "animalNumber",
          "type": "uint256"
        }
      ],
      "name": "animalPrice",
      "outputs": [
        {
          "internalType": "uint256",
          "name": "",
          "type": "uint256"
        }
      ],
      "stateMutability": "view",
      "type": "function",
      "constant": true
    },
    {
      "inputs": [
        {
          "internalType": "uint256",
          "name": "animalNumber",
          "type": "uint256"
        }
      ],
      "name": "buyAnimal",
      "outputs": [],
      "stateMutability": "payable",
      "type": "function",
      "payable": true
    },
    {
      "inputs": [
        {
          "internalType": "uint256",
          "name": "animalNumber",
          "type": "uint256"
        },
        {
          "internalType": "uint256",
          "name": "price",
          "type": "uint256"
        }
      ],
      "name": "offerForSale",
      "outputs": [],
      "stateMutability": "nonpayable",
      "type": "function"
    },
    {
      "inputs": [
        {
          "internalType": "uint256",
          "name": "sex",
          "type": "uint256"
        },
        {
          "internalType": "uint256",
          "name": "legs",
          "type": "uint256"
        },
        {
          "internalType": "bool",
          "name": "wings",
          "type": "bool"
        },
        {
          "internalType": "string",
          "name": "name",
          "type": "string"
        },
        {
          "internalType": "uint256",
          "name": "parent1",
          "type": "uint256"
        },
        {
          "internalType": "uint256",
          "name": "parent2",
          "type": "uint256"
        }
      ],
      "name": "declareAnimalWithParents",
      "outputs": [
        {
          "internalType": "uint256",
          "name": "",
          "type": "uint256"
        }
      ],
      "stateMutability": "nonpayable",
      "type": "function"
    },
    {
      "inputs": [
        {
          "internalType": "uint256",
          "name": "animalNumber",
          "type": "uint256"
        }
      ],
      "name": "getParents",
      "outputs": [
        {
          "internalType": "uint256",
          "name": "",
          "type": "uint256"
        },
        {
          "internalType": "uint256",
          "name": "",
          "type": "uint256"
        }
      ],
      "stateMutability": "nonpayable",
      "type": "function"
    },
    {
      "inputs": [
        {
          "internalType": "uint256",
          "name": "animalNumber",
          "type": "uint256"
        }
      ],
      "name": "canReproduce",
      "outputs": [
        {
          "internalType": "bool",
          "name": "",
          "type": "bool"
        }
      ],
      "stateMutability": "nonpayable",
      "type": "function"
    },
    {
      "inputs": [
        {
          "internalType": "uint256",
          "name": "animalNumber",
          "type": "uint256"
        }
      ],
      "name": "reproductionPrice",
      "outputs": [
        {
          "internalType": "uint256",
          "name": "",
          "type": "uint256"
        }
      ],
      "stateMutability": "view",
      "type": "function",
      "constant": true
    },
    {
      "inputs": [
        {
          "internalType": "uint256",
          "name": "animalNumber",
          "type": "uint256"
        },
        {
          "internalType": "uint256",
          "name": "priceOfReproduction",
          "type": "uint256"
        }
      ],
      "name": "offerForReproduction",
      "outputs": [
        {
          "internalType": "uint256",
          "name": "",
          "type": "uint256"
        }
      ],
      "stateMutability": "nonpayable",
      "type": "function"
    },
    {
      "inputs": [
        {
          "internalType": "uint256",
          "name": "animalNumber",
          "type": "uint256"
        }
      ],
      "name": "authorizedBreederToReproduce",
      "outputs": [
        {
          "internalType": "address",
          "name": "",
          "type": "address"
        }
      ],
      "stateMutability": "nonpayable",
      "type": "function"
    },
    {
      "inputs": [
        {
          "internalType": "uint256",
          "name": "animalNumber",
          "type": "uint256"
        }
      ],
      "name": "payForReproduction",
      "outputs": [],
      "stateMutability": "payable",
      "type": "function",
      "payable": true
    }
  ],
  "bytecode": "0x60806040523480156200001157600080fd5b506040518060400160405280600781526020017f4152544855524c000000000000000000000000000000000000000000000000008152506040518060400160405280600281526020017f414c000000000000000000000000000000000000000000000000000000000000815250620000966301ffc9a760e01b6200036660201b60201c565b8160069080519060200190620000ae929190620008cc565b508060079080519060200190620000c7929190620008cc565b50620000e06380ac58cd60e01b6200036660201b60201c565b620000f8635b5e139f60e01b6200036660201b60201c565b6200011063780e9d6360e01b6200036660201b60201c565b505062000139734538fa1b83872e981e1a91af385b45f7bedc10ab600a6200046f60201b60201c565b6200016073f84ba7ad45418f36a35dfd664445d6e5fbc4f2ab600b6200046f60201b60201c565b60405180604001604052806001151581526020016509184e72a00081525060116000600a815260200190815260200160002060008201518160000160006101000a81548160ff02191690831515021790555060208201518160010155905050600a600b6000734538fa1b83872e981e1a91af385b45f7bedc10ab73ffffffffffffffffffffffffffffffffffffffff1673ffffffffffffffffffffffffffffffffffffffff168152602001908152602001600020600080815260200190815260200160002081905550600b80600073f84ba7ad45418f36a35dfd664445d6e5fbc4f2ab73ffffffffffffffffffffffffffffffffffffffff1673ffffffffffffffffffffffffffffffffffffffff168152602001908152602001600020600080815260200190815260200160002081905550734538fa1b83872e981e1a91af385b45f7bedc10ab60126000600a815260200190815260200160002060006101000a81548173ffffffffffffffffffffffffffffffffffffffff021916908373ffffffffffffffffffffffffffffffffffffffff16021790555073f84ba7ad45418f36a35dfd664445d6e5fbc4f2ab60126000600b815260200190815260200160002060006101000a81548173ffffffffffffffffffffffffffffffffffffffff021916908373ffffffffffffffffffffffffffffffffffffffff1602179055506200097b565b63ffffffff60e01b817bffffffffffffffffffffffffffffffffffffffffffffffffffffffff1916141562000403576040517f08c379a000000000000000000000000000000000000000000000000000000000815260040180806020018281038252601c8152602001807f4552433136353a20696e76616c696420696e746572666163652069640000000081525060200191505060405180910390fd5b6001600080837bffffffffffffffffffffffffffffffffffffffffffffffffffffffff19167bffffffffffffffffffffffffffffffffffffffffffffffffffffffff1916815260200190815260200160002060006101000a81548160ff02191690831515021790555050565b600073ffffffffffffffffffffffffffffffffffffffff168273ffffffffffffffffffffffffffffffffffffffff16141562000513576040517f08c379a00000000000000000000000000000000000000000000000000000000081526004018080602001828103825260208152602001807f4552433732313a206d696e7420746f20746865207a65726f206164647265737381525060200191505060405180910390fd5b62000524816200068360201b60201c565b1562000598576040517f08c379a000000000000000000000000000000000000000000000000000000000815260040180806020018281038252601c8152602001807f4552433732313a20746f6b656e20616c7265616479206d696e7465640000000081525060200191505060405180910390fd5b620005ac60008383620006a760201b60201c565b6200060481600160008573ffffffffffffffffffffffffffffffffffffffff1673ffffffffffffffffffffffffffffffffffffffff168152602001908152602001600020620006ac60201b6200379d1790919060201c565b506200062281836002620006ce60201b620037b7179092919060201c565b50808273ffffffffffffffffffffffffffffffffffffffff16600073ffffffffffffffffffffffffffffffffffffffff167fddf252ad1be2c89b69c2b068fc378daa952ba7f163c4a11628f55a4df523b3ef60405160405180910390a45050565b6000620006a08260026200070b60201b620037531790919060201c565b9050919050565b505050565b6000620006c6836000018360001b6200072d60201b60201c565b905092915050565b600062000702846000018460001b8473ffffffffffffffffffffffffffffffffffffffff1660001b620007a760201b60201c565b90509392505050565b600062000725836000018360001b6200088660201b60201c565b905092915050565b6000620007418383620008a960201b60201c565b6200079c578260000182908060018154018082558091505060019003906000526020600020016000909190919091505582600001805490508360010160008481526020019081526020016000208190555060019050620007a1565b600090505b92915050565b600080846001016000858152602001908152602001600020549050600081141562000850578460000160405180604001604052808681526020018581525090806001815401808255809150506001900390600052602060002090600202016000909190919091506000820151816000015560208201518160010155505084600001805490508560010160008681526020019081526020016000208190555060019150506200087f565b828560000160018303815481106200086457fe5b90600052602060002090600202016001018190555060009150505b9392505050565b600080836001016000848152602001908152602001600020541415905092915050565b600080836001016000848152602001908152602001600020541415905092915050565b828054600181600116156101000203166002900490600052602060002090601f016020900481019282601f106200090f57805160ff191683800117855562000940565b8280016001018555821562000940579182015b828111156200093f57825182559160200191906001019062000922565b5b5090506200094f919062000953565b5090565b6200097891905b80821115620009745760008160009055506001016200095a565b5090565b90565b61443f806200098b6000396000f3fe6080604052600436106102675760003560e01c80635845469211610144578063a0c32c8f116100b6578063c7b9cb0b1161007a578063c7b9cb0b14611355578063c87b56dd146113be578063d50384fe14611472578063e985e9c5146114e1578063ec8977721461156a578063ff36ed98146115a557610267565b8063a0c32c8f1461106d578063a22cb465146110c6578063b75e075014611123578063b88d4fde146111f0578063c5f51f731461130257610267565b806377386df31161010857806377386df314610d585780637aac3b5014610d9d578063898572a614610dec578063929c13e314610e4257806395d89b4114610f10578063998dd3ca14610fa057610267565b80635845469214610aa35780635fa8eae414610af65780636352211e14610be85780636c0360eb14610c6357806370a0823114610cf357610267565b80632a4672b2116101dd5780633573dbd1116101a15780633573dbd1146108dc57806340d097c31461092b57806341d30bae1461097c57806342842e0e146109865780634abda8c814610a015780634f6ccce714610a5457610267565b80632a4672b21461068f5780632f745c59146106de57806330ccd8c41461074d57806332b0f376146107c857806334c732cd1461088257610267565b806318160ddd1161022f57806318160ddd146104bf5780631a14e94a146104ea578063216586581461051857806323b872dd14610543578063242a0087146105be57806327aa8f311461061457610267565b806301ffc9a71461026c57806305190458146102de57806306fdde0314610359578063081812fc146103e9578063095ea7b314610464575b600080fd5b34801561027857600080fd5b506102c46004803603602081101561028f57600080fd5b8101908080357bffffffffffffffffffffffffffffffffffffffffffffffffffffffff191690602001909291905050506115d3565b604051808215151515815260200191505060405180910390f35b3480156102ea57600080fd5b506103176004803603602081101561030157600080fd5b810190808035906020019092919050505061163a565b604051808273ffffffffffffffffffffffffffffffffffffffff1673ffffffffffffffffffffffffffffffffffffffff16815260200191505060405180910390f35b34801561036557600080fd5b5061036e61166d565b6040518080602001828103825283818151815260200191508051906020019080838360005b838110156103ae578082015181840152602081019050610393565b50505050905090810190601f1680156103db5780820380516001836020036101000a031916815260200191505b509250505060405180910390f35b3480156103f557600080fd5b506104226004803603602081101561040c57600080fd5b810190808035906020019092919050505061170f565b604051808273ffffffffffffffffffffffffffffffffffffffff1673ffffffffffffffffffffffffffffffffffffffff16815260200191505060405180910390f35b34801561047057600080fd5b506104bd6004803603604081101561048757600080fd5b81019080803573ffffffffffffffffffffffffffffffffffffffff169060200190929190803590602001909291905050506117aa565b005b3480156104cb57600080fd5b506104d46118ee565b6040518082815260200191505060405180910390f35b6105166004803603602081101561050057600080fd5b81019080803590602001909291905050506118ff565b005b34801561052457600080fd5b5061052d6119c3565b6040518082815260200191505060405180910390f35b34801561054f57600080fd5b506105bc6004803603606081101561056657600080fd5b81019080803573ffffffffffffffffffffffffffffffffffffffff169060200190929190803573ffffffffffffffffffffffffffffffffffffffff169060200190929190803590602001909291905050506119d0565b005b3480156105ca57600080fd5b506105f7600480360360208110156105e157600080fd5b8101908080359060200190929190505050611a46565b604051808381526020018281526020019250505060405180910390f35b34801561062057600080fd5b5061064d6004803603602081101561063757600080fd5b8101908080359060200190929190505050611a80565b604051808273ffffffffffffffffffffffffffffffffffffffff1673ffffffffffffffffffffffffffffffffffffffff16815260200191505060405180910390f35b34801561069b57600080fd5b506106c8600480360360208110156106b257600080fd5b8101908080359060200190929190505050611abd565b6040518082815260200191505060405180910390f35b3480156106ea57600080fd5b506107376004803603604081101561070157600080fd5b81019080803573ffffffffffffffffffffffffffffffffffffffff16906020019092919080359060200190929190505050611add565b6040518082815260200191505060405180910390f35b34801561075957600080fd5b506107866004803603602081101561077057600080fd5b8101908080359060200190929190505050611b38565b604051808273ffffffffffffffffffffffffffffffffffffffff1673ffffffffffffffffffffffffffffffffffffffff16815260200191505060405180910390f35b3480156107d457600080fd5b5061086c600480360360808110156107eb57600080fd5b8101908080359060200190929190803590602001909291908035151590602001909291908035906020019064010000000081111561082857600080fd5b82018360208201111561083a57600080fd5b8035906020019184600183028401116401000000008311171561085c57600080fd5b9091929391929390505050611b74565b6040518082815260200191505060405180910390f35b34801561088e57600080fd5b506108bb600480360360208110156108a557600080fd5b8101908080359060200190929190505050611bf4565b60405180831515151581526020018281526020019250505060405180910390f35b3480156108e857600080fd5b50610915600480360360208110156108ff57600080fd5b8101908080359060200190929190505050611c25565b6040518082815260200191505060405180910390f35b34801561093757600080fd5b5061097a6004803603602081101561094e57600080fd5b81019080803573ffffffffffffffffffffffffffffffffffffffff169060200190929190505050611c42565b005b610984611c68565b005b34801561099257600080fd5b506109ff600480360360608110156109a957600080fd5b81019080803573ffffffffffffffffffffffffffffffffffffffff169060200190929190803573ffffffffffffffffffffffffffffffffffffffff16906020019092919080359060200190929190505050611ce1565b005b348015610a0d57600080fd5b50610a3a60048036036020811015610a2457600080fd5b8101908080359060200190929190505050611d01565b604051808215151515815260200191505060405180910390f35b348015610a6057600080fd5b50610a8d60048036036020811015610a7757600080fd5b8101908080359060200190929190505050611d2e565b6040518082815260200191505060405180910390f35b348015610aaf57600080fd5b50610adc60048036036020811015610ac657600080fd5b8101908080359060200190929190505050611d51565b604051808215151515815260200191505060405180910390f35b348015610b0257600080fd5b50610be6600480360360a0811015610b1957600080fd5b8101908080359060200190929190803590602001909291908035906020019092919080351515906020019092919080359060200190640100000000811115610b6057600080fd5b820183602082011115610b7257600080fd5b80359060200191846001830284011164010000000083111715610b9457600080fd5b91908080601f016020809104026020016040519081016040528093929190818152602001838380828437600081840152601f19601f820116905080830192505050505050509192919290505050611d71565b005b348015610bf457600080fd5b50610c2160048036036020811015610c0b57600080fd5b8101908080359060200190929190505050611e0e565b604051808273ffffffffffffffffffffffffffffffffffffffff1673ffffffffffffffffffffffffffffffffffffffff16815260200191505060405180910390f35b348015610c6f57600080fd5b50610c78611e45565b6040518080602001828103825283818151815260200191508051906020019080838360005b83811015610cb8578082015181840152602081019050610c9d565b50505050905090810190601f168015610ce55780820380516001836020036101000a031916815260200191505b509250505060405180910390f35b348015610cff57600080fd5b50610d4260048036036020811015610d1657600080fd5b81019080803573ffffffffffffffffffffffffffffffffffffffff169060200190929190505050611ee7565b6040518082815260200191505060405180910390f35b348015610d6457600080fd5b50610d9b60048036036040811015610d7b57600080fd5b810190808035906020019092919080359060200190929190505050611fbc565b005b348015610da957600080fd5b50610dd660048036036020811015610dc057600080fd5b8101908080359060200190929190505050612090565b6040518082815260200191505060405180910390f35b348015610df857600080fd5b50610e2560048036036020811015610e0f57600080fd5b81019080803590602001909291905050506120a8565b604051808381526020018281526020019250505060405180910390f35b348015610e4e57600080fd5b50610efa600480360360c0811015610e6557600080fd5b81019080803590602001909291908035906020019092919080351515906020019092919080359060200190640100000000811115610ea257600080fd5b820183602082011115610eb457600080fd5b80359060200191846001830284011164010000000083111715610ed657600080fd5b909192939192939080359060200190929190803590602001909291905050506120cc565b6040518082815260200191505060405180910390f35b348015610f1c57600080fd5b50610f256123e9565b6040518080602001828103825283818151815260200191508051906020019080838360005b83811015610f65578082015181840152602081019050610f4a565b50505050905090810190601f168015610f925780820380516001836020036101000a031916815260200191505b509250505060405180910390f35b348015610fac57600080fd5b50610fd960048036036020811015610fc357600080fd5b810190808035906020019092919050505061248b565b604051808581526020018481526020018315151515815260200180602001828103825283818151815260200191508051906020019080838360005b8381101561102f578082015181840152602081019050611014565b50505050905090810190601f16801561105c5780820380516001836020036101000a031916815260200191505b509550505050505060405180910390f35b34801561107957600080fd5b506110b06004803603604081101561109057600080fd5b810190808035906020019092919080359060200190929190505050612560565b6040518082815260200191505060405180910390f35b3480156110d257600080fd5b50611121600480360360408110156110e957600080fd5b81019080803573ffffffffffffffffffffffffffffffffffffffff169060200190929190803515159060200190929190505050612650565b005b34801561112f57600080fd5b5061115c6004803603602081101561114657600080fd5b8101908080359060200190929190505050612808565b604051808060200185151515158152602001848152602001838152602001828103825286818151815260200191508051906020019080838360005b838110156111b2578082015181840152602081019050611197565b50505050905090810190601f1680156111df5780820380516001836020036101000a031916815260200191505b509550505050505060405180910390f35b3480156111fc57600080fd5b506113006004803603608081101561121357600080fd5b81019080803573ffffffffffffffffffffffffffffffffffffffff169060200190929190803573ffffffffffffffffffffffffffffffffffffffff169060200190929190803590602001909291908035906020019064010000000081111561127a57600080fd5b82018360208201111561128c57600080fd5b803590602001918460018302840111640100000000831117156112ae57600080fd5b91908080601f016020809104026020016040519081016040528093929190818152602001838380828437600081840152601f19601f82011690508083019250505050505050919291929050505061292f565b005b34801561130e57600080fd5b5061133b6004803603602081101561132557600080fd5b81019080803590602001909291905050506129a7565b604051808215151515815260200191505060405180910390f35b34801561136157600080fd5b506113a46004803603602081101561137857600080fd5b81019080803573ffffffffffffffffffffffffffffffffffffffff1690602001909291905050506129d1565b604051808215151515815260200191505060405180910390f35b3480156113ca57600080fd5b506113f7600480360360208110156113e157600080fd5b8101908080359060200190929190505050612a73565b6040518080602001828103825283818151815260200191508051906020019080838360005b8381101561143757808201518184015260208101905061141c565b50505050905090810190601f1680156114645780820380516001836020036101000a031916815260200191505b509250505060405180910390f35b34801561147e57600080fd5b506114cb6004803603604081101561149557600080fd5b81019080803573ffffffffffffffffffffffffffffffffffffffff16906020019092919080359060200190929190505050612d44565b6040518082815260200191505060405180910390f35b3480156114ed57600080fd5b506115506004803603604081101561150457600080fd5b81019080803573ffffffffffffffffffffffffffffffffffffffff169060200190929190803573ffffffffffffffffffffffffffffffffffffffff169060200190929190505050612d69565b604051808215151515815260200191505060405180910390f35b34801561157657600080fd5b506115a36004803603602081101561158d57600080fd5b8101908080359060200190929190505050612dfd565b005b6115d1600480360360208110156115bb57600080fd5b8101908080359060200190929190505050612eb7565b005b6000806000837bffffffffffffffffffffffffffffffffffffffffffffffffffffffff19167bffffffffffffffffffffffffffffffffffffffffffffffffffffffff1916815260200190815260200160002060009054906101000a900460ff169050919050565b60126020528060005260406000206000915054906101000a900473ffffffffffffffffffffffffffffffffffffffff1681565b606060068054600181600116156101000203166002900480601f0160208091040260200160405190810160405280929190818152602001828054600181600116156101000203166002900480156117055780601f106116da57610100808354040283529160200191611705565b820191906000526020600020905b8154815290600101906020018083116116e857829003601f168201915b5050505050905090565b600061171a82612f0c565b61176f576040517f08c379a000000000000000000000000000000000000000000000000000000000815260040180806020018281038252602c815260200180614334602c913960400191505060405180910390fd5b6004600083815260200190815260200160002060009054906101000a900473ffffffffffffffffffffffffffffffffffffffff169050919050565b60006117b582611e0e565b90508073ffffffffffffffffffffffffffffffffffffffff168373ffffffffffffffffffffffffffffffffffffffff16141561183c576040517f08c379a00000000000000000000000000000000000000000000000000000000081526004018080602001828103825260218152602001806143b86021913960400191505060405180910390fd5b8073ffffffffffffffffffffffffffffffffffffffff1661185b612f29565b73ffffffffffffffffffffffffffffffffffffffff16148061188a575061188981611884612f29565b612d69565b5b6118df576040517f08c379a00000000000000000000000000000000000000000000000000000000081526004018080602001828103825260388152602001806142876038913960400191505060405180910390fd5b6118e98383612f31565b505050565b60006118fa6002612fea565b905090565b60011515600e600083815260200190815260200160002060009054906101000a900460ff16151514611999576040517f08c379a000000000000000000000000000000000000000000000000000000000815260040180806020018281038252601b8152602001807f5468697320616e696d616c206973206e6f7420666f722073616c65000000000081525060200191505060405180910390fd5b6119c06119a582611e0e565b73b1beae84fdc2989fb9ef5c2ee8127617b17039e083612fff565b50565b600064e8d4a51000905090565b6119e16119db612f29565b82613242565b611a36576040517f08c379a00000000000000000000000000000000000000000000000000000000081526004018080602001828103825260318152602001806143d96031913960400191505060405180910390fd5b611a41838383612fff565b505050565b6000806010600084815260200190815260200160002060000154601060008581526020019081526020016000206001015491509150915091565b60006012600083815260200190815260200160002060009054906101000a900473ffffffffffffffffffffffffffffffffffffffff169050919050565b600060116000838152602001908152602001600020600101549050919050565b6000600b60008473ffffffffffffffffffffffffffffffffffffffff1673ffffffffffffffffffffffffffffffffffffffff168152602001908152602001600020600083815260200190815260200160002054905092915050565b600d8181548110611b4557fe5b906000526020600020016000915054906101000a900473ffffffffffffffffffffffffffffffffffffffff1681565b6000611b9573b1beae84fdc2989fb9ef5c2ee8127617b17039e06004613336565b611be7600487878787878080601f016020809104026020016040519081016040528093929190818152602001838380828437600081840152601f19601f82011690508083019250505050505050611d71565b6004905095945050505050565b60116020528060005260406000206000915090508060000160009054906101000a900460ff16908060010154905082565b6000600f6000838152602001908152602001600020549050919050565b6000611c4e600a61352a565b9050611c5a600a613538565b611c648282613336565b5050565b600d73b1beae84fdc2989fb9ef5c2ee8127617b17039e09080600181540180825580915050600190039060005260206000200160009091909190916101000a81548173ffffffffffffffffffffffffffffffffffffffff021916908373ffffffffffffffffffffffffffffffffffffffff160217905550565b611cfc8383836040518060200160405280600081525061292f565b505050565b60006011600083815260200190815260200160002060000160009054906101000a900460ff169050919050565b600080611d4583600261354e90919063ffffffff16565b50905080915050919050565b600e6020528060005260406000206000915054906101000a900460ff1681565b611d796140eb565b6040518060800160405280868152602001858152602001841515815260200183815250905080600c6000888152602001908152602001600020600082015181600001556020820151816001015560408201518160020160006101000a81548160ff0219169083151502179055506060820151816003019080519060200190611e02929190614115565b50905050505050505050565b6000611e3e826040518060600160405280602981526020016142e960299139600261357d9092919063ffffffff16565b9050919050565b606060098054600181600116156101000203166002900480601f016020809104026020016040519081016040528092919081815260200182805460018160011615610100020316600290048015611edd5780601f10611eb257610100808354040283529160200191611edd565b820191906000526020600020905b815481529060010190602001808311611ec057829003601f168201915b5050505050905090565b60008073ffffffffffffffffffffffffffffffffffffffff168273ffffffffffffffffffffffffffffffffffffffff161415611f6e576040517f08c379a000000000000000000000000000000000000000000000000000000000815260040180806020018281038252602a8152602001806142bf602a913960400191505060405180910390fd5b611fb5600160008473ffffffffffffffffffffffffffffffffffffffff1673ffffffffffffffffffffffffffffffffffffffff16815260200190815260200160002061359c565b9050919050565b3373ffffffffffffffffffffffffffffffffffffffff16611fdc83611e0e565b73ffffffffffffffffffffffffffffffffffffffff1614612048576040517f08c379a00000000000000000000000000000000000000000000000000000000081526004018080602001828103825260248152602001806142116024913960400191505060405180910390fd5b6001600e600084815260200190815260200160002060006101000a81548160ff02191690831515021790555080600f6000848152602001908152602001600020819055505050565b600f6020528060005260406000206000915090505481565b60106020528060005260406000206000915090508060000154908060010154905082565b60003373ffffffffffffffffffffffffffffffffffffffff166012600084815260200190815260200160002060009054906101000a900473ffffffffffffffffffffffffffffffffffffffff1673ffffffffffffffffffffffffffffffffffffffff1614612185576040517f08c379a00000000000000000000000000000000000000000000000000000000081526004018080602001828103825260248152602001806142116024913960400191505060405180910390fd5b3373ffffffffffffffffffffffffffffffffffffffff166012600085815260200190815260200160002060009054906101000a900473ffffffffffffffffffffffffffffffffffffffff1673ffffffffffffffffffffffffffffffffffffffff161461223c576040517f08c379a00000000000000000000000000000000000000000000000000000000081526004018080602001828103825260248152602001806142116024913960400191505060405180910390fd5b6000612248600a61352a565b905061226773f84ba7ad45418f36a35dfd664445d6e5fbc4f2ab611c42565b60405180604001604052808581526020018481525060106000838152602001908152602001600020600082015181600001556020820151816001015590505060405180608001604052808a8152602001898152602001881515815260200187878080601f016020809104026020016040519081016040528093929190818152602001838380828437600081840152601f19601f82011690508083019250505050505050815250600c6000838152602001908152602001600020600082015181600001556020820151816001015560408201518160020160006101000a81548160ff0219169083151502179055506060820151816003019080519060200190612370929190614115565b50905050734538fa1b83872e981e1a91af385b45f7bedc10ab6012600085815260200190815260200160002060006101000a81548173ffffffffffffffffffffffffffffffffffffffff021916908373ffffffffffffffffffffffffffffffffffffffff16021790555080915050979650505050505050565b606060078054600181600116156101000203166002900480601f0160208091040260200160405190810160405280929190818152602001828054600181600116156101000203166002900480156124815780601f1061245657610100808354040283529160200191612481565b820191906000526020600020905b81548152906001019060200180831161246457829003601f168201915b5050505050905090565b600c6020528060005260406000206000915090508060000154908060010154908060020160009054906101000a900460ff1690806003018054600181600116156101000203166002900480601f0160208091040260200160405190810160405280929190818152602001828054600181600116156101000203166002900480156125565780601f1061252b57610100808354040283529160200191612556565b820191906000526020600020905b81548152906001019060200180831161253957829003601f168201915b5050505050905084565b60003373ffffffffffffffffffffffffffffffffffffffff1661258284611e0e565b73ffffffffffffffffffffffffffffffffffffffff16146125ee576040517f08c379a00000000000000000000000000000000000000000000000000000000081526004018080602001828103825260248152602001806142116024913960400191505060405180910390fd5b6040518060400160405280600115158152602001838152506011600085815260200190815260200160002060008201518160000160006101000a81548160ff021916908315150217905550602082015181600101559050506000905092915050565b612658612f29565b73ffffffffffffffffffffffffffffffffffffffff168273ffffffffffffffffffffffffffffffffffffffff1614156126f9576040517f08c379a00000000000000000000000000000000000000000000000000000000081526004018080602001828103825260198152602001807f4552433732313a20617070726f766520746f2063616c6c65720000000000000081525060200191505060405180910390fd5b8060056000612706612f29565b73ffffffffffffffffffffffffffffffffffffffff1673ffffffffffffffffffffffffffffffffffffffff16815260200190815260200160002060008473ffffffffffffffffffffffffffffffffffffffff1673ffffffffffffffffffffffffffffffffffffffff16815260200190815260200160002060006101000a81548160ff0219169083151502179055508173ffffffffffffffffffffffffffffffffffffffff166127b3612f29565b73ffffffffffffffffffffffffffffffffffffffff167f17307eab39ab6107e8899845ad3d59bd9653f200f220920489ca2b5937696c3183604051808215151515815260200191505060405180910390a35050565b606060008060006128176140eb565b600c600087815260200190815260200160002060405180608001604052908160008201548152602001600182015481526020016002820160009054906101000a900460ff16151515158152602001600382018054600181600116156101000203166002900480601f0160208091040260200160405190810160405280929190818152602001828054600181600116156101000203166002900480156128fd5780601f106128d2576101008083540402835291602001916128fd565b820191906000526020600020905b8154815290600101906020018083116128e057829003601f168201915b505050505081525050905080606001518160400151826020015183600001518393509450945094509450509193509193565b61294061293a612f29565b83613242565b612995576040517f08c379a00000000000000000000000000000000000000000000000000000000081526004018080602001828103825260318152602001806143d96031913960400191505060405180910390fd5b6129a1848484846135b1565b50505050565b6000600e600083815260200190815260200160002060009054906101000a900460ff169050919050565b600080600090505b600d80549050811015612a68578273ffffffffffffffffffffffffffffffffffffffff16600d8281548110612a0a57fe5b9060005260206000200160009054906101000a900473ffffffffffffffffffffffffffffffffffffffff1673ffffffffffffffffffffffffffffffffffffffff161415612a5b576001915050612a6e565b80806001019150506129d9565b50600090505b919050565b6060612a7e82612f0c565b612ad3576040517f08c379a000000000000000000000000000000000000000000000000000000000815260040180806020018281038252602f815260200180614389602f913960400191505060405180910390fd5b6060600860008481526020019081526020016000208054600181600116156101000203166002900480601f016020809104026020016040519081016040528092919081815260200182805460018160011615610100020316600290048015612b7c5780601f10612b5157610100808354040283529160200191612b7c565b820191906000526020600020905b815481529060010190602001808311612b5f57829003601f168201915b505050505090506060612b8d611e45565b9050600081511415612ba3578192505050612d3f565b600082511115612c745780826040516020018083805190602001908083835b60208310612be55780518252602082019150602081019050602083039250612bc2565b6001836020036101000a03801982511681845116808217855250505050505090500182805190602001908083835b60208310612c365780518252602082019150602081019050602083039250612c13565b6001836020036101000a0380198251168184511680821785525050505050509050019250505060405160208183030381529060405292505050612d3f565b80612c7e85613623565b6040516020018083805190602001908083835b60208310612cb45780518252602082019150602081019050602083039250612c91565b6001836020036101000a03801982511681845116808217855250505050505090500182805190602001908083835b60208310612d055780518252602082019150602081019050602083039250612ce2565b6001836020036101000a03801982511681845116808217855250505050505090500192505050604051602081830303815290604052925050505b919050565b600b602052816000526040600020602052806000526040600020600091509150505481565b6000600560008473ffffffffffffffffffffffffffffffffffffffff1673ffffffffffffffffffffffffffffffffffffffff16815260200190815260200160002060008373ffffffffffffffffffffffffffffffffffffffff1673ffffffffffffffffffffffffffffffffffffffff16815260200190815260200160002060009054906101000a900460ff16905092915050565b3373ffffffffffffffffffffffffffffffffffffffff16612e1d82611e0e565b73ffffffffffffffffffffffffffffffffffffffff1614612e89576040517f08c379a00000000000000000000000000000000000000000000000000000000081526004018080602001828103825260248152602001806142116024913960400191505060405180910390fd5b612e963361dead83612fff565b612eb481600080600060405180602001604052806000815250611d71565b50565b336012600083815260200190815260200160002060006101000a81548173ffffffffffffffffffffffffffffffffffffffff021916908373ffffffffffffffffffffffffffffffffffffffff16021790555050565b6000612f2282600261375390919063ffffffff16565b9050919050565b600033905090565b816004600083815260200190815260200160002060006101000a81548173ffffffffffffffffffffffffffffffffffffffff021916908373ffffffffffffffffffffffffffffffffffffffff160217905550808273ffffffffffffffffffffffffffffffffffffffff16612fa483611e0e565b73ffffffffffffffffffffffffffffffffffffffff167f8c5be1e5ebec7d5bd14f71427d1e84f3dd0314c0f7b2291e5b200ac8c7c3b92560405160405180910390a45050565b6000612ff88260000161376d565b9050919050565b8273ffffffffffffffffffffffffffffffffffffffff1661301f82611e0e565b73ffffffffffffffffffffffffffffffffffffffff161461308b576040517f08c379a00000000000000000000000000000000000000000000000000000000081526004018080602001828103825260298152602001806143606029913960400191505060405180910390fd5b600073ffffffffffffffffffffffffffffffffffffffff168273ffffffffffffffffffffffffffffffffffffffff161415613111576040517f08c379a00000000000000000000000000000000000000000000000000000000081526004018080602001828103825260248152602001806141ed6024913960400191505060405180910390fd5b61311c83838361377e565b613127600082612f31565b61317881600160008673ffffffffffffffffffffffffffffffffffffffff1673ffffffffffffffffffffffffffffffffffffffff16815260200190815260200160002061378390919063ffffffff16565b506131ca81600160008573ffffffffffffffffffffffffffffffffffffffff1673ffffffffffffffffffffffffffffffffffffffff16815260200190815260200160002061379d90919063ffffffff16565b506131e1818360026137b79092919063ffffffff16565b50808273ffffffffffffffffffffffffffffffffffffffff168473ffffffffffffffffffffffffffffffffffffffff167fddf252ad1be2c89b69c2b068fc378daa952ba7f163c4a11628f55a4df523b3ef60405160405180910390a4505050565b600061324d82612f0c565b6132a2576040517f08c379a000000000000000000000000000000000000000000000000000000000815260040180806020018281038252602c81526020018061425b602c913960400191505060405180910390fd5b60006132ad83611e0e565b90508073ffffffffffffffffffffffffffffffffffffffff168473ffffffffffffffffffffffffffffffffffffffff16148061331c57508373ffffffffffffffffffffffffffffffffffffffff166133048461170f565b73ffffffffffffffffffffffffffffffffffffffff16145b8061332d575061332c8185612d69565b5b91505092915050565b600073ffffffffffffffffffffffffffffffffffffffff168273ffffffffffffffffffffffffffffffffffffffff1614156133d9576040517f08c379a00000000000000000000000000000000000000000000000000000000081526004018080602001828103825260208152602001807f4552433732313a206d696e7420746f20746865207a65726f206164647265737381525060200191505060405180910390fd5b6133e281612f0c565b15613455576040517f08c379a000000000000000000000000000000000000000000000000000000000815260040180806020018281038252601c8152602001807f4552433732313a20746f6b656e20616c7265616479206d696e7465640000000081525060200191505060405180910390fd5b6134616000838361377e565b6134b281600160008573ffffffffffffffffffffffffffffffffffffffff1673ffffffffffffffffffffffffffffffffffffffff16815260200190815260200160002061379d90919063ffffffff16565b506134c9818360026137b79092919063ffffffff16565b50808273ffffffffffffffffffffffffffffffffffffffff16600073ffffffffffffffffffffffffffffffffffffffff167fddf252ad1be2c89b69c2b068fc378daa952ba7f163c4a11628f55a4df523b3ef60405160405180910390a45050565b600081600001549050919050565b6001816000016000828254019250508190555050565b60008060008061356186600001866137ec565b915091508160001c8160001c8090509350935050509250929050565b6000613590846000018460001b84613885565b60001c90509392505050565b60006135aa8260000161397b565b9050919050565b6135bc848484612fff565b6135c88484848461398c565b61361d576040517f08c379a00000000000000000000000000000000000000000000000000000000081526004018080602001828103825260328152602001806141bb6032913960400191505060405180910390fd5b50505050565b6060600082141561366b576040518060400160405280600181526020017f3000000000000000000000000000000000000000000000000000000000000000815250905061374e565b600082905060005b60008214613695578080600101915050600a828161368d57fe5b049150613673565b6060816040519080825280601f01601f1916602001820160405280156136ca5781602001600182028038833980820191505090505b50905060006001830390508593505b6000841461374657600a84816136eb57fe5b0660300160f81b8282806001900393508151811061370557fe5b60200101907effffffffffffffffffffffffffffffffffffffffffffffffffffffffffffff1916908160001a905350600a848161373e57fe5b0493506136d9565b819450505050505b919050565b6000613765836000018360001b613bd1565b905092915050565b600081600001805490509050919050565b505050565b6000613795836000018360001b613bf4565b905092915050565b60006137af836000018360001b613cdc565b905092915050565b60006137e3846000018460001b8473ffffffffffffffffffffffffffffffffffffffff1660001b613d4c565b90509392505050565b6000808284600001805490501161384e576040517f08c379a00000000000000000000000000000000000000000000000000000000081526004018080602001828103825260228152602001806143126022913960400191505060405180910390fd5b600084600001848154811061385f57fe5b906000526020600020906002020190508060000154816001015492509250509250929050565b6000808460010160008581526020019081526020016000205490506000811415839061394c576040517f08c379a00000000000000000000000000000000000000000000000000000000081526004018080602001828103825283818151815260200191508051906020019080838360005b838110156139115780820151818401526020810190506138f6565b50505050905090810190601f16801561393e5780820380516001836020036101000a031916815260200191505b509250505060405180910390fd5b5084600001600182038154811061395f57fe5b9060005260206000209060020201600101549150509392505050565b600081600001805490509050919050565b60006139ad8473ffffffffffffffffffffffffffffffffffffffff16613e28565b6139ba5760019050613bc9565b6060613b5063150b7a0260e01b6139cf612f29565b888787604051602401808573ffffffffffffffffffffffffffffffffffffffff1673ffffffffffffffffffffffffffffffffffffffff1681526020018473ffffffffffffffffffffffffffffffffffffffff1673ffffffffffffffffffffffffffffffffffffffff16815260200183815260200180602001828103825283818151815260200191508051906020019080838360005b83811015613a7f578082015181840152602081019050613a64565b50505050905090810190601f168015613aac5780820380516001836020036101000a031916815260200191505b5095505050505050604051602081830303815290604052907bffffffffffffffffffffffffffffffffffffffffffffffffffffffff19166020820180517bffffffffffffffffffffffffffffffffffffffffffffffffffffffff83818316178352505050506040518060600160405280603281526020016141bb603291398773ffffffffffffffffffffffffffffffffffffffff16613e3b9092919063ffffffff16565b90506000818060200190516020811015613b6957600080fd5b8101908080519060200190929190505050905063150b7a0260e01b7bffffffffffffffffffffffffffffffffffffffffffffffffffffffff1916817bffffffffffffffffffffffffffffffffffffffffffffffffffffffff191614925050505b949350505050565b600080836001016000848152602001908152602001600020541415905092915050565b60008083600101600084815260200190815260200160002054905060008114613cd05760006001820390506000600186600001805490500390506000866000018281548110613c3f57fe5b9060005260206000200154905080876000018481548110613c5c57fe5b9060005260206000200181905550600183018760010160008381526020019081526020016000208190555086600001805480613c9457fe5b60019003818190600052602060002001600090559055866001016000878152602001908152602001600020600090556001945050505050613cd6565b60009150505b92915050565b6000613ce88383613e53565b613d41578260000182908060018154018082558091505060019003906000526020600020016000909190919091505582600001805490508360010160008481526020019081526020016000208190555060019050613d46565b600090505b92915050565b6000808460010160008581526020019081526020016000205490506000811415613df357846000016040518060400160405280868152602001858152509080600181540180825580915050600190039060005260206000209060020201600090919091909150600082015181600001556020820151816001015550508460000180549050856001016000868152602001908152602001600020819055506001915050613e21565b82856000016001830381548110613e0657fe5b90600052602060002090600202016001018190555060009150505b9392505050565b600080823b905060008111915050919050565b6060613e4a8484600085613e76565b90509392505050565b600080836001016000848152602001908152602001600020541415905092915050565b606082471015613ed1576040517f08c379a00000000000000000000000000000000000000000000000000000000081526004018080602001828103825260268152602001806142356026913960400191505060405180910390fd5b613eda85613e28565b613f4c576040517f08c379a000000000000000000000000000000000000000000000000000000000815260040180806020018281038252601d8152602001807f416464726573733a2063616c6c20746f206e6f6e2d636f6e747261637400000081525060200191505060405180910390fd5b600060608673ffffffffffffffffffffffffffffffffffffffff1685876040518082805190602001908083835b60208310613f9c5780518252602082019150602081019050602083039250613f79565b6001836020036101000a03801982511681845116808217855250505050505090500191505060006040518083038185875af1925050503d8060008114613ffe576040519150601f19603f3d011682016040523d82523d6000602084013e614003565b606091505b509150915061401382828661401f565b92505050949350505050565b6060831561402f578290506140e4565b6000835111156140425782518084602001fd5b816040517f08c379a00000000000000000000000000000000000000000000000000000000081526004018080602001828103825283818151815260200191508051906020019080838360005b838110156140a957808201518184015260208101905061408e565b50505050905090810190601f1680156140d65780820380516001836020036101000a031916815260200191505b509250505060405180910390fd5b9392505050565b60405180608001604052806000815260200160008152602001600015158152602001606081525090565b828054600181600116156101000203166002900490600052602060002090601f016020900481019282601f1061415657805160ff1916838001178555614184565b82800160010185558215614184579182015b82811115614183578251825591602001919060010190614168565b5b5090506141919190614195565b5090565b6141b791905b808211156141b357600081600090555060010161419b565b5090565b9056fe4552433732313a207472616e7366657220746f206e6f6e20455243373231526563656976657220696d706c656d656e7465724552433732313a207472616e7366657220746f20746865207a65726f2061646472657373596f7520617265206e6f7420746865206f776e6572206f66207468697320616e696d616c416464726573733a20696e73756666696369656e742062616c616e636520666f722063616c6c4552433732313a206f70657261746f7220717565727920666f72206e6f6e6578697374656e7420746f6b656e4552433732313a20617070726f76652063616c6c6572206973206e6f74206f776e6572206e6f7220617070726f76656420666f7220616c6c4552433732313a2062616c616e636520717565727920666f7220746865207a65726f20616464726573734552433732313a206f776e657220717565727920666f72206e6f6e6578697374656e7420746f6b656e456e756d657261626c654d61703a20696e646578206f7574206f6620626f756e64734552433732313a20617070726f76656420717565727920666f72206e6f6e6578697374656e7420746f6b656e4552433732313a207472616e73666572206f6620746f6b656e2074686174206973206e6f74206f776e4552433732314d657461646174613a2055524920717565727920666f72206e6f6e6578697374656e7420746f6b656e4552433732313a20617070726f76616c20746f2063757272656e74206f776e65724552433732313a207472616e736665722063616c6c6572206973206e6f74206f776e6572206e6f7220617070726f766564a264697066735822122014161c12264811dc599ca653509585448299a3f6cd9f5105295b0677856e5a0064736f6c63430006020033",
  "source": "pragma solidity ^0.6.0;\r\nimport \"@openzeppelin/contracts/token/ERC721/ERC721.sol\";\r\nimport \"@openzeppelin/contracts/utils/Counters.sol\";\r\nimport \"./IExerciceSolution.sol\";\r\n\r\ncontract ExerciceSolution is IExerciceSolution, ERC721 {\r\n\r\n\r\n    using Counters for Counters.Counter;\r\n    Counters.Counter private _tokenIdCounter;\r\n\r\n    struct Animal{\r\n        uint256 sex;\r\n        uint256 legs;\r\n        bool wings;\r\n        string name;\r\n    }\r\n\r\n    struct Parents {\r\n        uint256 parent1;\r\n        uint256 parent2;\r\n    }\r\n\r\n    struct Reproduction {\r\n        bool CanReproduce;\r\n        uint256 price;\r\n    }\r\n    mapping(address=>mapping(uint=>uint))public ownerindex;\r\n    mapping(uint256 => Animal) public animals;\r\n    address[] public BreederCustomers;\r\n\r\n    mapping(uint256 => bool) public isDispoToSell;\r\n    mapping(uint256 => uint256) public isPrice;\r\n\r\n    mapping(uint256 => Parents) public parents;\r\n\r\n    mapping(uint256 => Reproduction) public reproduction;\r\n    mapping(uint =>address)public autorizereproduce;\r\n    constructor() ERC721(\"ARTHURL\", \"AL\") public {\r\n        _mint(0x4538fA1B83872e981E1a91aF385B45F7bEdc10ab,10);\r\n        _mint(0xf84BA7aD45418F36A35dfD664445D6e5fbC4f2ab,11);\r\n        reproduction[10]=Reproduction(true, 0.00001 ether);\r\n        ownerindex[0x4538fA1B83872e981E1a91aF385B45F7bEdc10ab][0]=10; \r\n        ownerindex[0xf84BA7aD45418F36A35dfD664445D6e5fbC4f2ab][0]=11;  \r\n        autorizereproduce[10]=0x4538fA1B83872e981E1a91aF385B45F7bEdc10ab;  \r\n         autorizereproduce[11]=0xf84BA7aD45418F36A35dfD664445D6e5fbC4f2ab;  \r\n      // _mint(address(0xB1BEAE84fDC2989fB9ef5C2ee8127617B17039E0), 1);\r\n       //_mint(msg.sender, 2);\r\n     //  isDispoToSell[2]=true;\r\n      // isPrice[2]=0.0000001 ether;\r\n       // _mint(address(0xB1BEAE84fDC2989fB9ef5C2ee8127617B17039E0), 4);\r\n        // AssociateAnimalToHolder(4, 1, 1, false, \"J3Lh1HPZpVQhIEN\");\r\n       // BreederCustomers.push(0xB1BEAE84fDC2989fB9ef5C2ee8127617B17039E0);\r\n    }\r\n\r\n\r\n\r\n\tfunction AssociateAnimalToHolder(uint animalNumber, uint sex, uint legs, bool wings, string memory name) public {\r\n        Animal memory animal=Animal(sex,legs,wings,name);\r\n        animals[animalNumber]=animal;\r\n    }\r\n\r\n    function safeMint(address to) public {\r\n        uint256 tokenId = _tokenIdCounter.current();\r\n        _tokenIdCounter.increment();\r\n        _mint(to, tokenId);\r\n    }\r\n\r\n    // Breeding function\r\n\tfunction isBreeder(address account) external override returns (bool) {\r\n        for(uint i=0;i<BreederCustomers.length;i++){\r\n            if(BreederCustomers[i]==account){\r\n                return true;\r\n      }\r\n    }\r\n        return false;\r\n    }\r\n\r\n\tfunction registrationPrice() external override returns (uint256) {\r\n        return 0.000001 ether;\r\n    }\r\n\r\n\tfunction registerMeAsBreeder() external override payable {\r\n        BreederCustomers.push(0xB1BEAE84fDC2989fB9ef5C2ee8127617B17039E0);\r\n    }\r\n\r\n\tfunction declareAnimal(uint sex, uint legs, bool wings, string calldata name) external override returns (uint256) {  \r\n        _mint(address(0xB1BEAE84fDC2989fB9ef5C2ee8127617B17039E0), 4);\r\n        AssociateAnimalToHolder(4, sex, legs, wings, name);\r\n        return 4;\r\n    }\r\n\r\n\tfunction getAnimalCharacteristics(uint animalNumber) external override returns (string memory _name, bool _wings, uint _legs, uint _sex) {\r\n        Animal memory animal=animals[animalNumber];\r\n        return (animal.name, animal.wings, animal.legs, animal.sex);    \r\n    }\r\n\r\n\tfunction declareDeadAnimal(uint animalNumber) external override {\r\n        require (ownerOf(animalNumber) == msg.sender, \"You are not the owner of this animal\");\r\n        _transfer(msg.sender,0x000000000000000000000000000000000000dEaD, animalNumber);\r\n        AssociateAnimalToHolder(animalNumber, 0, 0, false, \"\");\r\n    }\r\n\r\n\tfunction tokenOfOwnerByIndex(address owner, uint256 index) public view override(IExerciceSolution, ERC721) returns (uint256){\r\n         return ownerindex[owner][index];   \r\n    }\r\n\r\n\t// Selling functions\r\n\tfunction isAnimalForSale(uint animalNumber) external view override returns (bool) {\r\n        return isDispoToSell[animalNumber];\r\n    }\r\n\r\n\tfunction animalPrice(uint animalNumber) external view override returns (uint256) {\r\n        return isPrice[animalNumber];\r\n    }\r\n\r\n\tfunction buyAnimal(uint animalNumber) external override payable{\r\n        require(isDispoToSell[animalNumber]==true, \"This animal is not for sale\");\r\n       // require(balanceOf(0xB1BEAE84fDC2989fB9ef5C2ee8127617B17039E0)>isPrice[animalNumber], \"Insufficent balance\");\r\n        _transfer(ownerOf(animalNumber),0xB1BEAE84fDC2989fB9ef5C2ee8127617B17039E0, animalNumber);\r\n    }\r\n\r\n\tfunction offerForSale(uint animalNumber, uint price) external override {\r\n        require(ownerOf(animalNumber)==msg.sender, \"You are not the owner of this animal\");\r\n        isDispoToSell[animalNumber]=true;\r\n        isPrice[animalNumber]=price;\r\n    }\r\n\r\n\t// Reproduction functions\r\n\r\n\tfunction declareAnimalWithParents(uint sex, uint legs, bool wings, string calldata name, uint parent1, uint parent2) external override returns (uint256) {\r\n        require (autorizereproduce[parent2] == msg.sender, \"You are not the owner of this animal\");   \r\n        require (autorizereproduce[parent1] == msg.sender, \"You are not the owner of this animal\");\r\n        uint256 animalNumber=_tokenIdCounter.current();\r\n        safeMint(address(0xf84BA7aD45418F36A35dfD664445D6e5fbC4f2ab));\r\n        parents[animalNumber]=Parents(parent1, parent2);\r\n        animals[animalNumber]=Animal(sex,legs,wings,name);\r\n        autorizereproduce[parent2]=0x4538fA1B83872e981E1a91aF385B45F7bEdc10ab;    \r\n        \r\n        return animalNumber;\r\n    }\r\n\r\n\tfunction getParents(uint animalNumber) external override returns (uint256, uint256) {\r\n        return (parents[animalNumber].parent1, parents[animalNumber].parent2);\r\n    }\r\n\r\n\tfunction canReproduce(uint animalNumber) external override returns (bool) {\r\n\r\n        return reproduction[animalNumber].CanReproduce;\r\n    }\r\n\r\n\tfunction reproductionPrice(uint animalNumber) external view override returns (uint256) {\r\n        return reproduction[animalNumber].price;\r\n    }\r\n\r\n\tfunction offerForReproduction(uint animalNumber, uint priceOfReproduction) external override returns (uint256) {\r\n        require(ownerOf(animalNumber)==msg.sender, \"You are not the owner of this animal\");\r\n        reproduction[animalNumber]=Reproduction(true, priceOfReproduction);\r\n        return 0;\r\n    }\r\n\r\n\tfunction authorizedBreederToReproduce(uint animalNumber) external override returns (address) {\r\n        return autorizereproduce[animalNumber];\r\n    }\r\n\r\n\tfunction payForReproduction(uint animalNumber) external override payable{\r\n        autorizereproduce[animalNumber]=msg.sender;\r\n\r\n    }\r\n}",
  "sourcePath": "C:\\Users\\arth-\\Documents\\A4\\Blockchain Programming\\TD ERC721\\erc721-101\\contracts\\ExerciceSolution.sol",
  "compiler": {
    "name": "solc",
    "version": "0.6.2+commit.bacdbe57.Emscripten.clang"
  },
  "schemaVersion": "3.4.11",
  "updatedAt": "2022-12-05T19:16:26.908Z",
  "networkType": "ethereum",
  "devdoc": {
    "methods": {
      "approve(address,uint256)": {
        "details": "See {IERC721-approve}."
      },
      "balanceOf(address)": {
        "details": "See {IERC721-balanceOf}."
      },
      "baseURI()": {
        "details": "Returns the base URI set via {_setBaseURI}. This will be automatically added as a prefix in {tokenURI} to each token's URI, or to the token ID if no specific URI is set for that token ID."
      },
      "getApproved(uint256)": {
        "details": "See {IERC721-getApproved}."
      },
      "isApprovedForAll(address,address)": {
        "details": "See {IERC721-isApprovedForAll}."
      },
      "name()": {
        "details": "See {IERC721Metadata-name}."
      },
      "ownerOf(uint256)": {
        "details": "See {IERC721-ownerOf}."
      },
      "safeTransferFrom(address,address,uint256)": {
        "details": "See {IERC721-safeTransferFrom}."
      },
      "safeTransferFrom(address,address,uint256,bytes)": {
        "details": "See {IERC721-safeTransferFrom}."
      },
      "setApprovalForAll(address,bool)": {
        "details": "See {IERC721-setApprovalForAll}."
      },
      "supportsInterface(bytes4)": {
        "details": "See {IERC165-supportsInterface}.     * Time complexity O(1), guaranteed to always use less than 30 000 gas."
      },
      "symbol()": {
        "details": "See {IERC721Metadata-symbol}."
      },
      "tokenByIndex(uint256)": {
        "details": "See {IERC721Enumerable-tokenByIndex}."
      },
      "tokenURI(uint256)": {
        "details": "See {IERC721Metadata-tokenURI}."
      },
      "totalSupply()": {
        "details": "See {IERC721Enumerable-totalSupply}."
      },
      "transferFrom(address,address,uint256)": {
        "details": "See {IERC721-transferFrom}."
      }
    }
  },
  "userdoc": {
    "methods": {}
  }
}